S01B000063733132306270726F6A6563746D61737465722E73726563BB
S113000045C0000062C0000060C000005EC0000087
S11300105CC000005AC0000058C0000056C0000078
S113002054C0000052C0000050C000004EC0000088
S11300304CC000000C94130C48C0000046C00000E3
S113004044C0000042C0000040C000003EC00000A8
S11300503CC000003AC0000038C0000036C00000B8
S113006034C0000032C0000030C000002EC00000C8
S11300702CC000002AC0000028C0000026C00000D8
S113008024C0000022C0000020C0000011241FBEB4
S1130090CFEFD0E4DEBFCDBF11E0A0E0B1E0EAE1F4
S11300A0F9E200E00BBF02C007900D92AE30B10739
S11300B0D9F727E0AEE0B1E001C01D92A73FB20737
S11300C0E1F70E94DD0C0C948B149ACFCF93DF934D
S11300D000D0CDB7DEB789836A8382E290E02981BC
S11300E02095FC01208388E290E02A81FC01208392
S11300F08BE290E02FEFFC0120830F900F90DF91B3
S1130100CF910895CF93DF9300D0CDB7DEB7898325
S11301106A838BE290E029812095FC01208388E2A8
S113012090E02A81FC01208382E290E02FEFFC0121
S113013020830F900F90DF91CF910895CF93DF9399
S113014000D0CDB7DEB789836A8388E290E02A8144
S1130150FC01208382E290E029812095FC01208328
S11301608BE290E029812095FC0120830F900F9071
S1130170DF91CF910895CF93DF931F92CDB7DEB770
S11301801982A7C08981282F30E041E1429FC00134
S1130190439F900D1124885A9E4FFC01808188232F
S11301A0F9F08981282F30E041E1429FC001439F4B
S11301B0900D1124885A9E4FFC018081823081F079
S11301C08981282F30E041E1429FC001439F900D77
S11301D01124885A9E4FFC018081833009F076C037
S11301E08981282F30E08981482F50E061E1649FA4
S11301F0C001659F900D1124865A9E4FFC014081D9
S113020051E1529FC001539F900D11248B5A9E4F70
S1130210FC0140838981282F30E08981482F50E0F8
S113022061E1649FC001659F900D1124855A9E4F22
S1130230FC01408151E1529FC001539F900D112454
S11302408A5A9E4FFC0140838981282F30E089819E
S1130250482F50E061E1649FC001659F900D112417
S1130260865A9E4FFC01408151E1529FC001539F29
S1130270900D11248D5A9E4FFC0140838981282FB3
S113028030E08981482F50E061E1649FC001659F9F
S1130290900D1124855A9E4FFC01408151E1529FDB
S11302A0C001539F900D11248C5A9E4FFC01408332
S11302B08981282F30E041E1429FC001439F900D86
S11302C01124875A9E4F21E0FC01208389818F5F8E
S11302D0898380911E019981981708F453CF0F9058
S11302E0DF91CF910895CF93DF93CDB7DEB780919F
S11302F01701882329F01092170181E080931801D7
S113030080911501882319F01092150134DF809132
S11303101301882329F01092130181E080935F0177
S113032080911401882329F01092140181E08093B4
S1130330600180911601882379F010921601809152
S11303405C01882349F480915D01882329F085E0CC
S113035080935C0110925D01DF91CF910895CF935A
S1130360DF93CDB7DEB765970FB6F894DEBF0FBE47
S1130370CDBF8091230190912401A0912501B091DA
S113038026010196A11DB11D8093230190932401A0
S1130390A0932501B0932601198258C28981282F80
S11303A030E041E1429FC001439F900D1124885ADF
S11303B09E4FFC018081882381F08981282F30E0C1
S11303C041E1429FC001439F900D1124885A9E4FE2
S11303D0FC018081823009F036C28981282F30E007
S11303E041E1429FC001439F900D1124815A9E4FC9
S11303F0FC018081882309F40BC18981282F30E016
S113040041E1429FC001439F900D1124815A9E4FA8
S1130410FC0110828981282F30E041E1429FC00114
S1130420439F900D11248B5A9E4FFC018081882399
S11304300CF4E0C08981282F30E041E1429FC001E3
S1130440439F900D1124835A9E4FFC018081882381
S113045009F468C08091230190912401A0912501A1
S1130460B091260123E030E040E050E0BC01CD0132
S11304700E94C513DC01CB01892B8A2B8B2B09F03D
S1130480C7C08981282F30E08981482F50E061E17D
S1130490649FC001659F900D11248B5A9E4FFC01EF
S11304A0408151E1529FC001539F900D11248D5AF8
S11304B09E4FFC0140838981282F30E08981482F99
S11304C050E061E1649FC001659F900D11248A5A38
S11304D09E4FFC01408151E1529FC001539F900DFA
S11304E011248C5A9E4FFC0140838981282F30E0CF
S11304F08981482F50E061E1649FC001659F900DA0
S113050011248B5A9E4FFC018081482F440F51E1E6
S1130510529FC001539F900D11248B5A9E4FFC0192
S1130520408376C08091230190912401A0912501FC
S1130530B091260126E030E040E050E0BC01CD015E
S11305400E94C513DC01CB01892B8A2B8B2B09F06C
S11305505FC08981282F30E08981482F50E061E114
S1130560649FC001659F900D11248B5A9E4FFC011E
S1130570408151E1529FC001539F900D11248D5A27
S11305809E4FFC0140838981282F30E08981482FC8
S113059050E061E1649FC001659F900D11248A5A67
S11305A09E4FFC01408151E1529FC001539F900D29
S11305B011248C5A9E4FFC0140838981282F30E0FE
S11305C08981482F50E061E1649FC001659F900DCF
S11305D011248B5A9E4FFC018081482F440F51E116
S11305E0529FC001539F900D11248B5A9E4FFC01C2
S11305F040830EC08981282F30E041E1429FC00131
S1130600439F900D11248D599E4F21E0FC012083BE
S11306108981282F30E041E1429FC001439F900D22
S11306201124805A9E4FFC018081882309F40BC158
S11306308981282F30E041E1429FC001439F900D02
S11306401124805A9E4FFC0110828981282F30E0AA
S113065041E1429FC001439F900D11248B5A9E4F4C
S1130660FC018081823008F4E0C08981282F30E0C9
S113067041E1429FC001439F900D1124835A9E4F34
S1130680FC018081882309F468C080912301909142
S11306902401A0912501B091260123E030E040E03F
S11306A050E0BC01CD010E94C513DC01CB01892BB4
S11306B08A2B8B2B09F0C7C08981282F30E08981D0
S11306C0482F50E061E1649FC001659F900D1124A3
S11306D08B5A9E4FFC01408151E1529FC001539FB0
S11306E0900D11248D5A9E4FFC0140838981282F3F
S11306F030E08981482F50E061E1649FC001659F2B
S1130700900D11248A5A9E4FFC01408151E1529F61
S1130710C001539F900D11248C5A9E4FFC014083BD
S11307208981282F30E08981482F50E061E1649F5E
S1130730C001659F900D11248B5A9E4FFC0180814E
S1130740482F469551E1529FC001539F900D1124AB
S11307508B5A9E4FFC01408376C080912301909177
S11307602401A0912501B091260126E030E040E06B
S113077050E0BC01CD010E94C513DC01CB01892BE3
S11307808A2B8B2B09F05FC08981282F30E0898167
S1130790482F50E061E1649FC001659F900D1124D2
S11307A08B5A9E4FFC01408151E1529FC001539FDF
S11307B0900D11248D5A9E4FFC0140838981282F6E
S11307C030E08981482F50E061E1649FC001659F5A
S11307D0900D11248A5A9E4FFC01408151E1529F91
S11307E0C001539F900D11248C5A9E4FFC014083ED
S11307F08981282F30E08981482F50E061E1649F8E
S1130800C001659F900D11248B5A9E4FFC0180817D
S1130810482F469551E1529FC001539F900D1124DA
S11308208B5A9E4FFC0140830EC08981282F30E0F3
S113083041E1429FC001439F900D11248D599E4F69
S113084021E0FC01208389818F5F898380911E01CF
S11308509981981708F4A2CD8091230190912401E5
S1130860A0912501B091260126E030E040E050E05F
S1130870BC01CD010E94C513DC01CB01892B8A2B5D
S11308808B2BA1F48091230190912401A091250147
S1130890B0912601892B8A2B8B2B41F010922301D6
S11308A010922401109225011092260165960FB62C
S11308B0F894DEBF0FBECDBFDF91CF910895CF93E3
S11308C0DF9300D000D01F92CDB7DEB780911F0117
S11308D090912001A0912101B09122010196A11DC6
S11308E0B11D80931F0190932001A0932101B09327
S11308F0220180911F0190912001A0912101B091CA
S1130900220123E030E040E050E0BC01CD010E9430
S1130910C513DC01CB01892B8A2B8B2B09F071C108
S113092080911F0190912001A0912101B091220199
S1130930892B8A2B8B2B09F464C1198254C18981B8
S1130940282F30E041E1429FC001439F900D1124C4
S1130950885A9E4FFC018081882381F08981282F49
S113096030E041E1429FC001439F900D1124885A19
S11309709E4FFC018081823009F032C18981282F89
S113098030E041E1429FC001439F900D1124845AFD
S11309909E4FFC018081882309F07DC08981282F26
S11309A030E041E1429FC001439F900D11248A5AD7
S11309B09E4FFC01808188230CF45EC08981282F1E
S11309C030E08981482F50E061E1649FC001659F58
S11309D0900D11248B5A9E4FFC01408151E1529F8E
S11309E0C001539F900D11248D5A9E4FFC014083EA
S11309F08981282F30E08981482F50E061E1649F8C
S1130A00C001659F900D11248A5A9E4FFC014081BC
S1130A1051E1529FC001539F900D11248C5A9E4F57
S1130A20FC0140838981282F30E08981482F50E0E0
S1130A3061E1649FC001659F900D11248A5A9E4F05
S1130A40FC018081482F440F51E1529FC001539F04
S1130A50900D11248A5A9E4FFC0140838981282FCE
S1130A6030E041E1429FC001439F900D1124835A1D
S1130A709E4FFC011082B4C08981282F30E041E1EF
S1130A80429FC001439F900D1124835A9E4F21E041
S1130A90FC012083A5C08981282F30E041E1429FD9
S1130AA0C001439F900D11248A5A9E4FFC018081FE
S1130AB0823008F450C08981282F30E08981482F82
S1130AC050E061E1649FC001659F900D11248B5A31
S1130AD09E4FFC01408151E1529FC001539F900DF4
S1130AE011248D5A9E4FFC0140838981282F30E0C8
S1130AF08981482F50E061E1649FC001659F900D9A
S1130B0011248A5A9E4FFC01408151E1529FC00139
S1130B10539F900D11248C5A9E4FFC014083898170
S1130B20282F30E08981482F50E061E1649FC001A3
S1130B30659F900D11248A5A9E4FFC018081482F95
S1130B40469551E1529FC001539F900D11248A5A3A
S1130B509E4FFC0140838981282F30E041E1429F70
S1130B60C001439F900D1124845A9E4FFC01808143
S1130B708823D1F08981882F90E041E1489F90013A
S1130B80499F300D1124245A3E4FF90120814FEF23
S1130B90420F51E1589F9001599F300D1124C90112
S1130BA0845A9E4FFC0140838981282F30E041E123
S1130BB0429FC001439F900D11248A5A9E4FFC010D
S1130BC08081813069F48981282F30E041E1429F9E
S1130BD0C001439F900D1124845A9E4FFC01108242
S1130BE089818F5F898380911E019981981708F408
S1130BF0A6CE10921F011092200110922101109292
S1130C0022010F900F900F900F900F90DF91CF91D2
S1130C100895CF93DF9300D01F92CDB7DEB781E064
S1130C20898312C18981282F30E041E1429FC001AC
S1130C30439F900D1124885A9E4FFC01808182307D
S1130C4009F0FFC08981282F30E041E1429FC001B3
S1130C50439F900D1124875A9E4FFC01808181305F
S1130C6009F0EFC08981282F30E041E1429FC001A3
S1130C70439F900D1124825A9E4FFC01808188234A
S1130C8071F48981282F30E041E1429FC001439FE4
S1130C90900D1124825A9E4F21E0FC01208389810A
S1130CA0282F30E041E1429FC001439F900D112461
S1130CB0825A9E4FFC0180818130C9F58981282F99
S1130CC030E041E1429FC001439F900D11248D59B2
S1130CD09E4FFC018081882379F48981282F30E09C
S1130CE041E1429FC001439F900D1124815A9E4FC0
S1130CF021E0FC0120831BC08981282F30E041E1E1
S1130D00429FC001439F900D11248D599E4FFC01B9
S1130D1010828981282F30E041E1429FC001439F26
S1130D20900D1124825A9E4F22E0FC012083898178
S1130D30282F30E041E1429FC001439F900D1124D0
S1130D40825A9E4FFC0180818230C9F58981282F07
S1130D5030E041E1429FC001439F900D11248D5921
S1130D609E4FFC018081882379F48981282F30E00B
S1130D7041E1429FC001439F900D1124805A9E4F30
S1130D8021E0FC0120831BC08981282F30E041E150
S1130D90429FC001439F900D11248D599E4FFC0129
S1130DA010828981282F30E041E1429FC001439F96
S1130DB0900D1124825A9E4F21E0FC0120830E9451
S1130DC0421425E030E0B9010E94B2130197C9F53D
S1130DD08981282F30E041E1429FC001439F900D5B
S1130DE01124845A9E4FFC018081882351F5898106
S1130DF0282F30E041E1429FC001439F900D112410
S1130E00835A9E4FFC0180818823D9F08981282F41
S1130E1030E041E1429FC001439F900D1124845A68
S1130E209E4F23E0FC0120838981282F30E041E19B
S1130E30429FC001439F900D1124835A9E4FFC0191
S1130E40108289818F5F898380911E01998198170F
S1130E5008F4E8CE0F900F900F90DF91CF91089592
S1130E60CF93DF9300D0CDB7DEB7198225C3898134
S1130E708F5F8A8318C38981282F30E041E1429F24
S1130E80C001439F900D11248B5A9E4FFC01408159
S1130E908A81282F30E051E1529FC001539F900D69
S1130EA011248B5A9E4FFC018081481709F0F8C227
S1130EB08981282F30E041E1429FC001439F900D7A
S1130EC011248A5A9E4FFC0140818A81282F30E0E8
S1130ED051E1529FC001539F900D11248A5A9E4F95
S1130EE0FC018081481709F0DBC28981282F30E09A
S1130EF041E1429FC001439F900D1124885A9E4FA7
S1130F00FC018081882379F48A81282F30E041E133
S1130F10429FC001439F900D1124885A9E4FFC01AB
S1130F208081813001F18981282F30E041E1429FA5
S1130F30C001439F900D1124885A9E4FFC0180816B
S1130F40823009F0C2C08A81282F30E041E1429FFB
S1130F50C001439F900D1124885A9E4FFC0180814B
S1130F60813009F0B2C08981282F30E041E1429FED
S1130F70C001439F900D11248C5A9E4FFC01408167
S1130F808981282F30E051E1529FC001539F900D79
S1130F9011248A5A9E4FFC018081481770F489817C
S1130FA0282F30E041E1429FC001439F900D11245E
S1130FB0835A9E4F21E0FC0120838981282F30E051
S1130FC041E1429FC001439F900D11248C5A9E4FD2
S1130FD0FC0140818981282F30E051E1529FC001FA
S1130FE0539F900D11248A5A9E4FFC0180818417CF
S1130FF068F48981282F30E041E1429FC001439F7A
S1131000900D1124845A9E4FFC0110828981282F4F
S113101030E041E1429FC001439F900D11248C5A5E
S11310209E4FFC0140818A81282F30E051E1529F7C
S1131030C001539F900D11248A5A9E4FFC01808158
S1131040481771F48981282F30E041E1429FC001A3
S1131050439F900D11248D599E4F21E0FC01208364
S11310608981282F30E08981482F50E061E1649F15
S1131070C001659F900D11248C5A9E4FFC01408144
S113108051E1529FC001539F900D11248A5A9E4FE3
S1131090FC0140838981282F30E08981482F50E06A
S11310A061E1649FC001659F900D11248D5A9E4F8C
S11310B0FC01408151E1529FC001539F900D1124C6
S11310C08B5A9E4FFC014083EFC08981282F30E06A
S11310D041E1429FC001439F900D1124885A9E4FC5
S11310E0FC018081813079F48A81282F30E041E14C
S11310F0429FC001439F900D1124885A9E4FFC01CA
S11311008081882301F18981282F30E041E1429FC9
S1131110C001439F900D1124885A9E4FFC01808189
S1131120813009F0C1C08A81282F30E041E1429F1B
S1131130C001439F900D1124885A9E4FFC01808169
S1131140823009F0B1C08A81282F30E041E1429F0A
S1131150C001439F900D11248C5A9E4FFC01408185
S11311608A81282F30E051E1529FC001539F900D96
S113117011248A5A9E4FFC018081481770F48A8199
S1131180282F30E041E1429FC001439F900D11247C
S1131190835A9E4F21E0FC0120838A81282F30E06E
S11311A041E1429FC001439F900D11248C5A9E4FF0
S11311B0FC0140818A81282F30E051E1529FC00117
S11311C0539F900D11248A5A9E4FFC0180818417ED
S11311D068F48A81282F30E041E1429FC001439F97
S11311E0900D1124845A9E4FFC0110828981282F6E
S11311F030E041E1429FC001439F900D11248A5A7F
S11312009E4FFC0140818A81282F30E051E1529F9A
S1131210C001539F900D11248C5A9E4FFC01808174
S1131220481771F48A81282F30E041E1429FC001C0
S1131230439F900D11248D599E4F21E0FC01208382
S11312408A81282F30E08A81482F50E061E1649F31
S1131250C001659F900D11248C5A9E4FFC01408162
S113126051E1529FC001539F900D11248A5A9E4F01
S1131270FC0140838A81282F30E08A81482F50E086
S113128061E1649FC001659F900D11248D5A9E4FAA
S1131290FC01408151E1529FC001539F900D1124E4
S11312A08B5A9E4FFC0140838981282F30E041E115
S11312B0429FC001439F900D1124885A9E4FFC0108
S11312C08081882371F58A81282F30E041E1429F93
S11312D0C001439F900D1124885A9E4FFC018081C8
S11312E08330F9F48A81282F30E041E1429FC00124
S11312F0439F900D1124875A9E4FFC0180818130B9
S113130081F481E080931B018A81282F30E041E140
S1131310429FC001439F900D1124875A9E4FFC01A8
S113132010828981282F30E041E1429FC001439F10
S1131330900D1124885A9E4FFC018081882309F066
S113134050C08A81282F30E041E1429FC001439F71
S1131350900D1124885A9E4FFC018081823009F03F
S113136040C08A81282F30E041E1429FC001439F61
S1131370900D1124875A9E4FFC018081813089F59C
S11313808981282F30E041E1429FC001439F900DA5
S113139011248C5A9E4FFC0140818981282F30E012
S11313A051E1529FC001539F900D11248A5A9E4FC0
S11313B0FC018081481770F48A81282F30E041E1D4
S11313C0429FC001439F900D1124875A9E4FFC01F8
S11313D0108266C081E08093190181E08093180136
S11313E05FC08981282F30E041E1429FC001439FC3
S11313F0900D1124885A9E4FFC018081823009F09F
S11314004FC08A81282F30E041E1429FC001439FB1
S1131410900D1124885A9E4FFC018081882309F085
S11314203FC08981282F30E041E1429FC001439FA2
S1131430900D1124875A9E4FFC018081813081F5E3
S11314408981282F30E041E1429FC001439F900DE4
S113145011248C5A9E4FFC0140818981282F30E051
S113146051E1529FC001539F900D11248A5A9E4FFF
S1131470FC018081841770F48981282F30E041E1D8
S1131480429FC001439F900D1124875A9E4FFC0137
S1131490108206C081E08093190181E080931801D5
S11314A08A818F5F8A8380911E019A81981708F43C
S11314B0E2CC89818F5F898380911E01998198177D
S11314C008F4D5CC0F900F90DF91CF910895CF936E
S11314D0DF931F92CDB7DEB789838981882F90E08F
S11314E09C012150310941E1429FC001439F900D6D
S11314F01124875A9E4FFC018081813009F09FC0DE
S11315008981882F90E09C012150310941E1429F5B
S1131510C001439F900D1124895A9E4FFC01808184
S1131520882319F58981882F90E09C012150310985
S113153041E1429FC001439F900D11248B5A9E4F5D
S1131540FC0150818981882F90E09C012150310950
S113155041E1429FC001439F900D11248A5A9E4F3E
S1131560FC018081652F0E9482008981882F90E090
S11315709C012150310941E1429FC001439F900DDC
S11315801124895A9E4FFC018081813019F589818B
S1131590882F90E09C012150310941E1429FC00114
S11315A0439F900D11248B5A9E4FFC0150818981D9
S11315B0882F90E09C012150310941E1429FC001F4
S11315C0439F900D11248A5A9E4FFC018081652F00
S11315D00E9466008981882F90E09C012150310986
S11315E041E1429FC001439F900D1124895A9E4FAF
S11315F0FC018081823019F58981882F90E09C015B
S11316002150310941E1429FC001439F900D1124B3
S11316108B5A9E4FFC0150818981882F90E09C0158
S11316202150310941E1429FC001439F900D112493
S11316308A5A9E4FFC018081652F0E949E000F9064
S1131640DF91CF910895CF93DF93CDB7DEB781E8D3
S113165090E02BE0FC01208388E890E02DE730E067
S1131660FC01318320838FE690E022E0FC0120839B
S113167084E890E0FC011182108280910401909131
S11316800501A0910601B091070180930F01909389
S11316901001A0931101B09312018FE590E02FE5A2
S11316A030E0F90120812068FC012083DF91CF9193
S11316B008950F931F93CF93DF931F92CDB7DEB797
S11316C01982A6C08981282F30E0C901880F991F8B
S11316D0820F931F880F991F880F991F8B5C9E4F51
S11316E0FC0120813181428153818981682F70E01E
S11316F0CB01880F991F860F971F880F991F880F9A
S1131700991F8F5C9E4FFC0180819181A281B381DE
S1131710281739074A075B0708F449C08981082F4D
S113172010E08981282F30E0C901880F991F820FAA
S1131730931F880F991F880F991F875C9E4FFC0188
S1131740408151818981282F30E0C901880F991F78
S1131750820F931F880F991F880F991F815D9E4FD9
S1131760FC0180819181FA0109959C01C801880FCF
S1131770991F800F911F880F991F880F991F815DF2
S11317809E4FFC01318320838981282F30E0C901D9
S1131790880F991F820F931F880F991F880F991F15
S11317A08B5C9E4FFC01108211821282138289810C
S11317B0682F70E08981282F30E0C901880F991FB4
S11317C0820F931F880F991F880F991F8B5C9E4F60
S11317D0FC0180819181A281B38121E030E040E06D
S11317E050E0280F391F4A1F5B1FCB01880F991F38
S11317F0860F971F880F991F880F991F8B5C9E4F28
S1131800FC01208331834283538389818F5F8983E1
S113181083E09981981708F455CF0F90DF91CF9109
S11318201F910F9108951F920F9200905F000F92E5
S1131830112400905B000F922F933F934F935F937B
S11318406F937F938F939F93AF93BF93EF93FF9384
S1131850CF93DF93CDB7DEB780910F019091100144
S1131860A0911101B09112010197A109B1098093CE
S11318700F0190931001A0931101B0931201809174
S11318800F0190911001A0911101B0911201892BC7
S11318908A2B8B2B89F40DDF809104019091050133
S11318A0A0910601B091070180930F01909310015C
S11318B0A0931101B0931201DF91CF91FF91EF91A9
S11318C0BF91AF919F918F917F916F915F914F9154
S11318D03F912F910F9000925B000F9000925F0058
S11318E00F901F901895CF93DF9300D000D0CDB701
S11318F0DEB769837A838B839C8389819A81AB81E8
S1131900BC818093040190930501A0930601B093D8
S113191007018091040190910501A0910601B09105
S1131920070180930F0190931001A0931101B093CC
S113193012010F900F900F900F90DF91CF910895A7
S1131940CF93DF93CDB7DEB784E290E020EBFC01C8
S113195020838CE490E020E5FC012083DF91CF918B
S11319600895CF93DF931F92CDB7DEB7898385E2C5
S113197090E025E230E0F90120812F7EFC012083F4
S11319808EE490E02981FC01208300008DE490E046
S1131990FC0180818823D4F785E290E025E230E0E1
S11319A0F90120812061FC0120838EE490E0FC0198
S11319B080810F90DF91CF910895CF93DF931F9291
S11319C0CDB7DEB781E290E02FEFFC01208382E205
S11319D090E02FEFFC01208387E290E02FEFFC01E1
S11319E0208388E290E0FC0110828AE290E02FEFED
S11319F0FC0120838BE290E0FC0110821982898132
S1131A00282F30E0C901880F991F820F931F880F78
S1131A10991F880F991F815D9E4FFC0111821082CE
S1131A208981682F70E021E030E040E050E0CB0194
S1131A30880F991F860F971F880F991F880F991F6A
S1131A408F5C9E4FFC0120833183428353838981C1
S1131A50682F70E08981282F30E0C901880F991F11
S1131A60820F931F880F991F880F991F8F5C9E4FB9
S1131A70FC012081318142815381CB01880F991F60
S1131A80860F971F880F991F880F991F8B5C9E4F95
S1131A90FC0120833183428353838981282F30E0E2
S1131AA0C901880F991F820F931F880F991F880FF0
S1131AB0991F875C9E4F29EF31E1FC01318320831C
S1131AC089818F5F89838981282F30E0C901880F3C
S1131AD0991F820F931F880F991F880F991F815D8B
S1131AE09E4FFC01118210828981682F70E021E0F1
S1131AF030E040E050E0CB01880F991F860F971F1C
S1131B00880F991F880F991F8F5C9E4FFC012083BB
S1131B103183428353838981682F70E08981282F20
S1131B2030E0C901880F991F820F931F880F991FF6
S1131B30880F991F8F5C9E4FFC0120813181428167
S1131B405381CB01880F991F860F971F880F991F08
S1131B50880F991F8B5C9E4FFC0120833183428345
S1131B6053838981282F30E0C901880F991F820F80
S1131B70931F880F991F880F991F875C9E4F2CE82D
S1131B8032E1FC013183208389818F5F89838981DC
S1131B90282F30E0C901880F991F820F931F880FE7
S1131BA0991F880F991F815D9E4FFC01118210823D
S1131BB08981682F70E02EE130E040E050E0CB01F5
S1131BC0880F991F860F971F880F991F880F991FD9
S1131BD08F5C9E4FFC012083318342835383898130
S1131BE0682F70E08981282F30E0C901880F991F80
S1131BF0820F931F880F991F880F991F8F5C9E4F28
S1131C00FC012081318142815381CB01880F991FCE
S1131C10860F971F880F991F880F991F8B5C9E4F03
S1131C20FC0120833183428353838981282F30E050
S1131C30C901880F991F820F931F880F991F880F5E
S1131C40991F875C9E4F2EE733E1FC01318320838B
S1131C508091080180935501809109018093560178
S1131C60809108018093530180910901809354016C
S1131C708091080180935A018091090180935B014E
S1131C80109257011092580181E0809359011092EB
S1131C905C0110925F011092600110925E0110923B
S1131CA06101109262011092630180911E018F5FA5
S1131CB080931E0181E08093660180E88093670130
S1131CC081E08093640180E88093650181E08093E2
S1131CD06B0180E880936C011092680181E080932D
S1131CE0690181E080936A0110926D011092700184
S1131CF01092710110926F0110927201109273018F
S1131D001092740180911E018F5F80931E0180E800
S1131D108093770180E88093780180E8809375014F
S1131D2080E88093760180E880937C0180E880934A
S1131D307D011092790181E080937A0181E08093A2
S1131D407B0110927E011092810110928201109207
S1131D508001109283011092840110928501809178
S1131D601E018F5F80931E0180E48093880180E8C8
S1131D708093890180E48093860180E880938701C1
S1131D8080E480938D0180E880938E0110928A0113
S1131D9081E080938B0181E080938C0110928F010C
S1131DA01092920110929301109291011092940159
S1131DB0109295011092960180911E018F5F80937D
S1131DC01E0180E88093990180E480939A0180E861
S1131DD08093970180E48093980180E880939E012A
S1131DE080E480939F0110929B0181E080939C0189
S1131DF081E080939D011092A0011092A3011092A2
S1131E00A4011092A2011092A5011092A6011092B1
S1131E10A70180911E018F5F80931E0188E080934B
S1131E20AA0180E28093AB0188E08093A80180E25C
S1131E308093A90188E08093AF0180E28093B00190
S1131E401092AC0181E08093AD0181E08093AE01FA
S1131E501092B1011092B4011092B5011092B30125
S1131E601092B6011092B7011092B80180911E0130
S1131E708F5F80931E0184E08093BB0180E2809396
S1131E80BC0184E08093B90180E28093BA0184E0CC
S1131E908093C00180E28093C1011092BD0181E072
S1131EA08093BE0181E08093BF011092C201109221
S1131EB0C5011092C6011092C4011092C70110927C
S1131EC0C8011092C90180911E018F5F80931E0189
S1131ED080E88093CC0188E08093CD0180E88093F2
S1131EE0CA0188E08093CB0180E88093D10188E027
S1131EF08093D2011092CE0181E08093CF0181E0E2
S1131F008093D0011092D3011092D6011092D70180
S1131F101092D5011092D8011092D9011092DA01D1
S1131F2080911E018F5F80931E0180E48093DD0108
S1131F3088E08093DE0180E48093DB0188E0809375
S1131F40DC0180E48093E20188E08093E301109255
S1131F50DF0181E08093E00181E08093E101109250
S1131F60E4011092E7011092E8011092E601109248
S1131F70E9011092EA011092EB0180911E018F5F3A
S1131F8080931E0180E28093EE0188E08093EF014C
S1131F9080E28093EC0188E08093ED0180E28093FD
S1131FA0F30188E08093F4011092F00181E08093C2
S1131FB0F10181E08093F2011092F5011092F80191
S1131FC01092F9011092F7011092FA011092FB019C
S1131FD01092FC0180911E018F5F80931E0181E0AD
S1131FE08093FF0188E08093000281E08093FD01EB
S1131FF088E08093FE0181E08093040288E080936E
S113200005021092010281E08093020281E0809334
S11320100302109206021092090210920A02109210
S1132020080210920B0210920C0210920D02809181
S11320301E018F5F80931E0180E48093100282E072
S11320408093110280E480930E0282E080930F0259
S113205080E48093150282E08093160210921202AB
S113206081E08093130281E080931402109217029E
S113207010921A0210921B021092190210921C0262
S113208010921D0210921E0280911E018F5F809398
S11320901E0188E08093210282E08093220288E07E
S11320A080931F0282E08093200288E080932602BE
S11320B082E0809327021092230281E0809324021D
S11320C081E0809325021092280210922B02109234
S11320D02C0210922A0210922D0210922E021092BB
S11320E02F0280911E018F5F80931E0184E08093F4
S11320F0320282E08093330284E08093300282E0F3
S11321008093310284E08093370282E08093380226
S11321101092340281E08093350281E0809336028C
S11321201092390210923C0210923D0210923B022E
S113213010923E0210923F021092400280911E01C2
S11321408F5F80931E0180E88093430280E2809336
S1132150440280E88093410280E28093420280E856
S11321608093480280E28093490281E08093450293
S113217082E08093460281E08093470210924A02F3
S113218010924D0210924E0210924C0210924F0285
S1132190109250021092510280911E018F5F809321
S11321A01E0188E08093540281E08093550288E008
S11321B08093520281E08093530288E08093590215
S11321C081E080935A0281E08093560282E08093FA
S11321D0570281E08093580210925B0210925E02D3
S11321E010925F0210925D021092600210926102DE
S11321F01092620280911E018F5F80931E0180E421
S11322008093650280E48093660280E48093630295
S113221080E48093640280E480936A0280E4809383
S11322206B0282E08093670283E08093680281E01E
S11322308093690210926C0210926F0210927002E5
S113224010926E0210927102109272021092730236
S113225080911E018F5F80931E0181E0809376023E
S113226080E48093770281E08093740280E4809319
S1132270750281E080937B0280E480937C0282E09B
S11322808093780283E08093790281E080937A02DC
S113229010927D02109280021092810210927F02AD
S11322A010928202109283021092840280911E0185
S11322B08F5F80931E0184E08093870280E1809386
S11322C0880284E08093850280E18093860284E022
S11322D080938C0280E180938D0282E08093890256
S11322E083E080938A0281E080938B0210928E02B5
S11322F01092910210929202109290021092930204
S1132300109294021092950280911E018F5F809327
S11323101E0180E48093980284E08093990280E413
S11323208093960284E08093970280E480939D02D8
S113233084E080939E0282E080939A0283E08093FB
S11323409B0281E080939C0210929F021092A20251
S11323501092A3021092A1021092A4021092A5025C
S11323601092A60280911E018F5F80931E0184E06B
S11323708093A90281E08093AA0284E08093A7025B
S113238081E08093A80284E08093AE0281E0809390
S1132390AF0282E08093AB0283E08093AC0281E0E1
S11323A08093AD021092B0021092B3021092B40264
S11323B01092B2021092B5021092B6021092B702B5
S11323C080911E018F5F80931E0181E090E0A0E068
S11323D0B0E0BC01CD0187DA36D9B2DA82ED91E101
S11323E054D2000080910E018823E1F310920E0173
S11323F0F8CFCF93DF9300D000D0CDB7DEB79C8366
S11324008B831A8219828B819C81009719F0019722
S113241031F076C081E090E09C838B8374C080911E
S11324201801882329F01092180189818160898319
S113243080911B01882329F010921B0189818260FD
S1132440898380911A01882359F010921A0181E03E
S11324508093150181E080931C01898184608983C4
S113246080911901882359F01092190181E0809319
S1132470150181E080931D018981886089838981A8
S113248070DA8A838A81882F90E081709927892B5A
S113249019F081E0809314018A81882F90E0827082
S11324A09927892B19F081E0809313018A81882F61
S11324B090E084709927892B19F081E080931701AB
S11324C08A81882F90E088709927892B19F081E000
S11324D0809316018A81882F90E080719927892B37
S11324E019F081E0809315018A81882F90E0807231
S11324F09927892B21F081E080931A0104C003C03D
S11325001C821B8200008B819C810F900F900F9086
S11325100F90DF91CF910895CF93DF9300D0CDB783
S1132520DEB79A83898389819A81009719F001978C
S113253031F0DAC081E090E09A838983D8C081E0E9
S113254090E09A83898380911D01882371F0109211
S11325501D018AEF90E0A0E0B0E080932701909302
S11325602801A0932901B0932A0180911C0188239A
S113257071F010921C018AEF90E0A0E0B0E080932B
S11325802B0190932C01A0932D01B0932E018091E7
S11325902B0190912C01A0912D01B0912E01892B3A
S11325A08A2B8B2B09F180912B0190912C01A09106
S11325B02D01B0912E010197A109B10980932B013E
S11325C090932C01A0932D01B0932E018BE290E007
S11325D0FC01108288E290E02FEFFC01208382E26C
S11325E090E02FEFFC012083809127019091280136
S11325F0A0912901B0912A01892B8A2B8B2B09F1F7
S11326008091270190912801A0912901B0912A017C
S11326100197A109B1098093270190932801A09300
S11326202901B0932A018BE290E02FEFFC01208373
S113263088E290E02FEFFC01208382E290E0FC012D
S113264010828091270190912801A0912901B091D5
S11326502A01892B8A2B8B2B09F045C080912B01F1
S113266090912C01A0912D01B0912E01892B8A2BE0
S11326708B2BC9F580910A0190910B01A0910C015B
S1132680B0910D010E94670A80911E01282F30E04D
S113269040E050E080910A0190910B01A0910C015F
S11326A0B0910D01281739074A075B0741F41092CE
S11326B00A0110920B0110920C0110920D018091ED
S11326C00A0190910B01A0910C01B0910D010196AA
S11326D0A11DB11D80930A0190930B01A0930C01DD
S11326E0B0930D0104C003C01A82198200008981CD
S11326F09A810F900F90DF91CF910895CF93DF933C
S113270000D0CDB7DEB79A83898389819A810097F7
S113271019F0019771F01CC081E090E09A838983DD
S113272010921F0110922001109221011092220197
S113273012C081E090E09A8389830E9473010E9411
S1132740AF010E945F040E9409060E94300703C083
S11327501A821982000089819A810F900F90DF916B
S1132760CF91089597FB072E16F4009406D077FDB9
S113277008D02DD007FC05D03EF4909581959F4F4D
S11327800895709561957F4F0895A1E21A2EAA1BB2
S1132790BB1BFD010DC0AA1FBB1FEE1FFF1FA2170D
S11327A0B307E407F50720F0A21BB30BE40BF50B0A
S11327B0661F771F881F991F1A9469F76095709593
S11327C0809590959B01AC01BD01CF010895AA1B92
S11327D0BB1B51E107C0AA1FBB1FA617B70710F008
S11327E0A61BB70B881F991F5A95A9F7809590953A
S11327F0BC01CD0108958F929F92AF92BF92CF9268
S1132800DF92EF92FF92CF93DF93EC01688179819D
S11328108A819B81611571058105910521F464E22A
S113282079ED8BE597E02DE133EF41E050E038D0CE
S113283049015A019B01AC01A7EAB1E44DD06B01F7
S11328407C01ACEEB4EFA501940152D0DC01CB01C4
S11328508C0D9D1DAE1DBF1DB7FF03C00197A109BF
S1132860B04888839983AA83BB839F77DF91CF91F4
S1132870FF90EF90DF90CF90BF90AF909F908F909C
S11328800895B9CF80E091E0B6CFA0E0B0E08093A6
S1132890000190930101A0930201B09303010895F4
S11328A0052E97FB16F400940FD057FD05D06DDF6D
S11328B007FC02D046F408C0509540953095219508
S11328C03F4F4F4F5F4F0895909580957095619558
S11328D07F4F8F4F9F4F08950FD0A59F900DB49FAA
S11328E0900DA49F800D911D11240895B7FFF4CF7E
S11328F0F3DF821B930B0895A29FB001B39FC00125
S1132900A39F700D811D1124911DB29F700D811D17
S10D29101124911D0895F894FFCFDF
S111291A010000000100000008800100000020
S9030000FC
