S01A000063733132306270726F6A656374736C6176652E737265632D
S11300004FC000006AC0000068C0000066C0000065
S113001064C0000062C0000060C000005EC0000058
S11300205CC000005AC0000058C0000056C0000068
S113003054C000002CC1000050C000004EC000009D
S11300404CC000004AC0000048C0000046C0000088
S113005044C0000042C0000040C000003EC0000098
S11300603CC000003AC0000038C0000036C00000A8
S113007034C0000032C0000030C000002EC00000B8
S11300802CC000002AC0000028C000002C02180266
S11300901A021C021E022002220224022602280244
S11300A011241FBECFEFD0E4DEBFCDBF11E0A0E02E
S11300B0B1E0EEE2F6E000E00BBF02C007900D9263
S11300C0A430B107D9F721E0A4E0B1E001C01D924A
S11300D0A836B207E1F7F7D1A8C292CF0097D9F0BA
S11300E08130910519F080E090E008952091780026
S11300F0309179002935324018F021E020930D0128
S113010020917800309179002039314030F421E099
S113011020930E01089581E090E00895009761F026
S11301208130910519F080E090E00895019906C0AE
S113013021E020930A01089581E090E0089500975A
S113014061F08130910519F080E090E00895029902
S113015006C021E020930B01089581E090E008950A
S1130160009761F08130910519F080E090E00895E6
S1130170039906C021E020930C01089581E090E0EA
S113018008950097C9F08130910519F080E090E05E
S1130190089520910901222321F0109209012EE1F2
S11301A004C020910501222329F021502093050148
S11301B040980895409A089581E090E00895EAE710
S11301C0F0E08081806E808308958BE080938100CD
S11301D08DE790E0909389008093880082E080937B
S11301E06F0010928500109284008091000190911C
S11301F00101A0910201B091030180930F0190933A
S11302001001A0931101B09312018FB780688FBFC2
S11302100895EF92FF920F931F93CF93DF93C4E15E
S1130220D1E00F2EF8E6EF2EF1E0FF2EF02D8E0137
S11302304E815F81688579858A819B81AC81BD818E
S1130240481759076A077B0758F0EA85FB858881B8
S113025099810995998388831E821F82188619863D
S1130260F80186819781A085B1850196A11DB11DF4
S113027086839783A087B1872C96CE15DF05B9F6C0
S1130280DF91CF911F910F91FF90EF9008951F92EE
S11302900F920FB60F9211240BB60F922F933F9328
S11302A04F935F936F937F938F939F93AF93BF937A
S11302B0EF93FF9380910F0190911001A091110190
S11302C0B09112010197A109B10980930F01909394
S11302D01001A0931101B0931201892B8A2B8B2B4F
S11302E089F497DF8091000190910101A0910201AE
S11302F0B091030180930F0190931001A093110119
S1130300B0931201FF91EF91BF91AF919F918F91A3
S11303107F916F915F914F913F912F910F900BBE01
S11303200F900FBE0F901F90189580E484B98CBD78
S113033008958EBD0DB407FEFDCF8EB50895CF93FD
S1130340DF93EC01009709F44CC0019719F0C0E069
S1130350D0E049C080910D01882321F010920D0155
S113036081E001C080E090910E01992319F0109270
S11303700E01826090910A01992319F010920A01EA
S1130380846090910B01992319F010920B018860FD
S113039090910C01992331F010920C0191E090930B
S11303A00601806190910701992319F010920701C9
S11303B08062BFDF80FF03C091E09093090181FF59
S11303C005C091E0909308019093090182FF03C056
S11303D091E09093060183FF06C081E080930601BB
S11303E002C0C1E0D0E0CE01DF91CF91089527E0B3
S11303F030E058E0E82FF0E05BB94BB1BF01022ECA
S113040002C0759567950A94E2F7962F9170942B24
S11304109BB95A9A2150310978F7599A1BB8089513
S113042090E08A309105B0F4FC01EA5BFF4FF4C020
S113043088E413C08DE311C08DE60FC08BE40DC0BA
S113044087E60BC087E709C08CE407C08FE705C0C7
S11304508FE403C080E001C08EE78095C8CF089583
S11304601F93CF93DF93EC01009731F1019719F0BB
S1130470C0E0D0E023C010910401812FD1DF80912E
S11304800801882339F0153028F4109208011F5F01
S11304901093040180910401853029F481E0809354
S11304A0070180930C0180910601882339F0109292
S11304B004011092060102C0C1E0D0E0CE01DF9138
S11304C0CF911F91089511B88FEF82B984B915B8EF
S11304D08AB91BB887B918B8E4E1F1E01182108237
S11304E08AE090E0A0E0B0E082839383A483B583A4
S11304F086839783A087B1878EE690E0938782876F
S1130500158614868EE190E0A0E0B0E08687978798
S1130510A08BB18B828B938BA48BB58B2FE930E0AE
S1130520378B268B118E108E828F938FA48FB58F6D
S1130530868F978FA0A3B1A32EE830E033A322A324
S113054015A214A286A397A3A0A7B1A782A793A7D5
S1130550A4A7B5A720EB30E037A726A711AA10AAB5
S113056041E050E060E070E042AB53AB64AB75AB8C
S113057046AB57AB60AF71AF2FE931E033AF22AF79
S113058015AE14AE8093520190935301A09354017D
S1130590B09355018093560190935701A09358014D
S11305A0B093590121EC30E030935B0120935A0160
S11305B010925D0110925C0180935E0190935F0143
S11305C0A0936001B09361018093620190936301F1
S11305D0A0936401B093650180E392E09093670176
S11305E080936601409300015093010160930201DE
S11305F07093030140930F01509310016093110114
S113060070931201E2DDDBDD90DE8091130188231B
S1130610E1F310921301F9CFEE0FFF1F0024001C29
S11106200BBE0790F691E02D0994F894FFCFDD
S107062E01000000C3
S9030000FC
